{
  "contractName": "TruffleToken",
  "abi": [
    {
      "inputs": [],
      "payable": false,
      "stateMutability": "nonpayable",
      "type": "constructor"
    },
    {
      "constant": false,
      "inputs": [
        {
          "name": "_to",
          "type": "address"
        },
        {
          "name": "_amount",
          "type": "uint256"
        }
      ],
      "name": "transfer",
      "outputs": [],
      "payable": false,
      "stateMutability": "nonpayable",
      "type": "function"
    },
    {
      "constant": true,
      "inputs": [
        {
          "name": "_owner",
          "type": "address"
        }
      ],
      "name": "balanceOfAddress",
      "outputs": [
        {
          "name": "",
          "type": "uint256"
        }
      ],
      "payable": false,
      "stateMutability": "view",
      "type": "function"
    }
  ],
  "bytecode": "0x6080604052620d903860005534801561001757600080fd5b50600054600160003373ffffffffffffffffffffffffffffffffffffffff1673ffffffffffffffffffffffffffffffffffffffff168152602001908152602001600020819055506102538061006d6000396000f30060806040526004361061004c576000357c0100000000000000000000000000000000000000000000000000000000900463ffffffff16806386212b8f14610051578063a9059cbb146100a8575b600080fd5b34801561005d57600080fd5b50610092600480360381019080803573ffffffffffffffffffffffffffffffffffffffff1690602001909291905050506100f5565b6040518082815260200191505060405180910390f35b3480156100b457600080fd5b506100f3600480360381019080803573ffffffffffffffffffffffffffffffffffffffff1690602001909291908035906020019092919050505061013e565b005b6000600160008373ffffffffffffffffffffffffffffffffffffffff1673ffffffffffffffffffffffffffffffffffffffff168152602001908152602001600020549050919050565b80600160003373ffffffffffffffffffffffffffffffffffffffff1673ffffffffffffffffffffffffffffffffffffffff168152602001908152602001600020541015151561018957fe5b80600160003373ffffffffffffffffffffffffffffffffffffffff1673ffffffffffffffffffffffffffffffffffffffff1681526020019081526020016000206000828254039250508190555080600160008473ffffffffffffffffffffffffffffffffffffffff1673ffffffffffffffffffffffffffffffffffffffff1681526020019081526020016000206000828254019250508190555050505600a165627a7a72305820306804785c46bb7c02185b9673ff460946090b51b9ef3e917c09cce3521300ba0029",
  "source": "pragma solidity ^0.4.24;\n\ncontract TruffleToken{\n    uint256 INITIAL_SUPPLY = 888888;\n    mapping (address=>uint256) balances;\n    constructor () public {\n        balances[msg.sender] = INITIAL_SUPPLY;\n    }\n    //转账到指定地址\n    function transfer(address _to, uint256 _amount) public {\n        assert(balances[msg.sender] >= _amount);\n        balances[msg.sender] -= _amount;\n        balances[_to] += _amount;\n    }\n    // 查看指定地址的余额\n    function balanceOfAddress(address _owner)public view returns (uint256) {\n        return balances[_owner];\n    }\n\n}",
  "sourcePath": "/Users/brucefeng/Coding/Solidity/constractDemos/ContractStudy/TruffleToken/contracts/TruffleToken.sol",
  "compiler": {
    "name": "solc",
    "version": "0.4.24+commit.e67f0147.Emscripten.clang"
  },
  "schemaVersion": "2.0.1",
  "updatedAt": "2018-10-07T12:59:03.575Z"
}