{
  "contractName": "Voting",
  "abi": [
    {
      "inputs": [
        {
          "name": "_candidates",
          "type": "string[]"
        }
      ],
      "payable": false,
      "stateMutability": "nonpayable",
      "type": "constructor"
    },
    {
      "constant": false,
      "inputs": [
        {
          "name": "person",
          "type": "string"
        }
      ],
      "name": "votingToperson",
      "outputs": [],
      "payable": false,
      "stateMutability": "nonpayable",
      "type": "function"
    },
    {
      "constant": true,
      "inputs": [
        {
          "name": "person",
          "type": "string"
        }
      ],
      "name": "votingTotalToPerson",
      "outputs": [
        {
          "name": "",
          "type": "uint256"
        }
      ],
      "payable": false,
      "stateMutability": "view",
      "type": "function"
    }
  ],
  "bytecode": "0x6080604052600560405190808252806020026020018201604052801561003957816020015b60608152602001906001900390816100245790505b506000908051906020019061004f9291906100e6565b5034801561005c57600080fd5b506040516107c43803806107c4833981018060405261007e91908101906103ab565b60008090505b81518110156100df57818181518110151561009b57fe5b906020019060200201516000828154811015156100b457fe5b9060005260206000200190805190602001906100d1929190610146565b508080600101915050610084565b50506104a0565b828054828255906000526020600020908101928215610135579160200282015b828111156101345782518290805190602001906101249291906101c6565b5091602001919060010190610106565b5b5090506101429190610246565b5090565b828054600181600116156101000203166002900490600052602060002090601f016020900481019282601f1061018757805160ff19168380011785556101b5565b828001600101855582156101b5579182015b828111156101b4578251825591602001919060010190610199565b5b5090506101c29190610272565b5090565b828054600181600116156101000203166002900490600052602060002090601f016020900481019282601f1061020757805160ff1916838001178555610235565b82800160010185558215610235579182015b82811115610234578251825591602001919060010190610219565b5b5090506102429190610272565b5090565b61026f91905b8082111561026b57600081816102629190610297565b5060010161024c565b5090565b90565b61029491905b80821115610290576000816000905550600101610278565b5090565b90565b50805460018160011615610100020316600290046000825580601f106102bd57506102dc565b601f0160209004906000526020600020908101906102db9190610272565b5b50565b600082601f83011215156102f257600080fd5b815161030561030082610419565b6103ec565b9150818183526020840193506020810190508360005b8381101561034b57815186016103318882610355565b84526020840193506020830192505060018101905061031b565b5050505092915050565b600082601f830112151561036857600080fd5b815161037b61037682610441565b6103ec565b9150808252602083016020830185838301111561039757600080fd5b6103a283828461046d565b50505092915050565b6000602082840312156103bd57600080fd5b600082015167ffffffffffffffff8111156103d757600080fd5b6103e3848285016102df565b91505092915050565b6000604051905081810181811067ffffffffffffffff8211171561040f57600080fd5b8060405250919050565b600067ffffffffffffffff82111561043057600080fd5b602082029050602081019050919050565b600067ffffffffffffffff82111561045857600080fd5b601f19601f8301169050602081019050919050565b60005b8381101561048b578082015181840152602081019050610470565b8381111561049a576000848401525b50505050565b610315806104af6000396000f30060806040526004361061004c576000357c0100000000000000000000000000000000000000000000000000000000900463ffffffff1680635df9188e146100515780635e0713571461008e575b600080fd5b34801561005d57600080fd5b50610078600480360361007391908101906101fe565b6100b7565b604051610085919061024e565b60405180910390f35b34801561009a57600080fd5b506100b560048036036100b091908101906101fe565b61012c565b005b60006001826040518082805190602001908083835b6020831015156100f157805182526020820191506020810190506020830392506100cc565b6001836020036101000a0380198251168184511680821785525050505050509050019150509081526020016040518091039020549050919050565b600180826040518082805190602001908083835b6020831015156101655780518252602082019150602081019050602083039250610140565b6001836020036101000a03801982511681845116808217855250505050505090500191505090815260200160405180910390206000828254019250508190555050565b600082601f83011215156101bb57600080fd5b81356101ce6101c982610296565b610269565b915080825260208301602083018583830111156101ea57600080fd5b6101f58382846102cc565b50505092915050565b60006020828403121561021057600080fd5b600082013567ffffffffffffffff81111561022a57600080fd5b610236848285016101a8565b91505092915050565b610248816102c2565b82525050565b6000602082019050610263600083018461023f565b92915050565b6000604051905081810181811067ffffffffffffffff8211171561028c57600080fd5b8060405250919050565b600067ffffffffffffffff8211156102ad57600080fd5b601f19601f8301169050602081019050919050565b6000819050919050565b828183376000838301525050505600a265627a7a72305820575a3ecfcd648fe625782b5eb03a57d133bb84b7640913b5ff349e7767ce16e66c6578706572696d656e74616cf50037",
  "source": "pragma solidity ^0.4.24;\npragma experimental ABIEncoderV2;\ncontract Voting{\n    //定义候选人存储数组，长度为5\n    string[]  condidates  = new string[](5) ;\n   \n    mapping(string => uint) condidatesVotingCount;\n    constructor (string[] _candidates) public {\n        for (uint i = 0 ; i < _candidates.length ; i++){\n            condidates[i] = _candidates[i];\n        }\n    }\n    //投票\n    function votingToperson(string  person) public {\n     //   assert(isVaildToPerson(person));\n        condidatesVotingCount[person] += 1 ;\n    }\n    //查询票数\n    function votingTotalToPerson(string person)public view returns (uint){\n     //   assert(isVaildToPerson(person));\n        return condidatesVotingCount[person];\n    }\n    // //判断是否在候选人列表中\n    // function isVaildToPerson(string  person) internal view returns (bool){\n\n    //     bytes  storage _person = bytes(person);\n\n    //     for (uint i = 0 ; i < condidates.length ;  i++){\n    //         if (bytes(condidates[i]) == _person ){\n    //             return true;\n    //         }else {\n    //             return false;\n    //         }\n    //     }\n    // } \n\n\n}  \n",
  "sourcePath": "/Users/brucefeng/Coding/Solidity/constractDemos/TruffleUnBox/VoteApp/contracts/Voting.sol",
  "compiler": {
    "name": "solc",
    "version": "0.4.24+commit.e67f0147.Emscripten.clang"
  },
  "schemaVersion": "2.0.1",
  "updatedAt": "2018-10-09T08:54:35.075Z"
}