{
  "contractName": "Account",
  "abi": [
    {
      "inputs": [],
      "payable": false,
      "stateMutability": "nonpayable",
      "type": "constructor"
    },
    {
      "payable": true,
      "stateMutability": "payable",
      "type": "fallback"
    },
    {
      "anonymous": false,
      "inputs": [
        {
          "indexed": true,
          "name": "from",
          "type": "address"
        },
        {
          "indexed": false,
          "name": "_aomunt",
          "type": "uint256"
        }
      ],
      "name": "LogDonate",
      "type": "event"
    },
    {
      "constant": false,
      "inputs": [
        {
          "name": "weiboString",
          "type": "string"
        }
      ],
      "name": "sendWeibo",
      "outputs": [],
      "payable": false,
      "stateMutability": "nonpayable",
      "type": "function"
    },
    {
      "constant": true,
      "inputs": [
        {
          "name": "weiboId",
          "type": "uint256"
        }
      ],
      "name": "getWeibo",
      "outputs": [
        {
          "name": "weiboString",
          "type": "string"
        },
        {
          "name": "timeStamp",
          "type": "uint256"
        }
      ],
      "payable": false,
      "stateMutability": "view",
      "type": "function"
    },
    {
      "constant": true,
      "inputs": [],
      "name": "getLastestWeibo",
      "outputs": [
        {
          "name": "weiboString",
          "type": "string"
        },
        {
          "name": "timeStamp",
          "type": "uint256"
        },
        {
          "name": "numberOfWeibos",
          "type": "uint256"
        }
      ],
      "payable": false,
      "stateMutability": "view",
      "type": "function"
    },
    {
      "constant": true,
      "inputs": [],
      "name": "getOwnerAddress",
      "outputs": [
        {
          "name": "adminAddress",
          "type": "address"
        }
      ],
      "payable": false,
      "stateMutability": "view",
      "type": "function"
    },
    {
      "constant": true,
      "inputs": [],
      "name": "getNumberOfWeibos",
      "outputs": [
        {
          "name": "numberOfWeibos",
          "type": "uint256"
        }
      ],
      "payable": false,
      "stateMutability": "view",
      "type": "function"
    },
    {
      "constant": false,
      "inputs": [
        {
          "name": "receiver",
          "type": "address"
        }
      ],
      "name": "adminRetrieveDonation",
      "outputs": [],
      "payable": false,
      "stateMutability": "nonpayable",
      "type": "function"
    },
    {
      "constant": false,
      "inputs": [],
      "name": "adminDeleteAccount",
      "outputs": [],
      "payable": false,
      "stateMutability": "nonpayable",
      "type": "function"
    }
  ],
  "bytecode": "0x608060405234801561001057600080fd5b50600060018190555033600260006101000a81548173ffffffffffffffffffffffffffffffffffffffff021916908373ffffffffffffffffffffffffffffffffffffffff1602179055506109f5806100696000396000f300608060405260043610610083576000357c0100000000000000000000000000000000000000000000000000000000900463ffffffff1680630c4f65bd146100d3578063138f64981461012a57806317ddb6901461016d5780633b401fd7146101d65780633e450fff1461028357806344c35f361461029a578063d2279b5414610338575b3373ffffffffffffffffffffffffffffffffffffffff167fc651c526da5277c9cbde59963e1c4e6324da2fae97ff1e31a326a0475664a383346040518082815260200191505060405180910390a2005b3480156100df57600080fd5b506100e8610363565b604051808273ffffffffffffffffffffffffffffffffffffffff1673ffffffffffffffffffffffffffffffffffffffff16815260200191505060405180910390f35b34801561013657600080fd5b5061016b600480360381019080803573ffffffffffffffffffffffffffffffffffffffff16906020019092919050505061038d565b005b34801561017957600080fd5b506101d4600480360381019080803590602001908201803590602001908080601f01602080910402602001604051908101604052809392919081815260200183838082843782019150505050505091929192905050506104a9565b005b3480156101e257600080fd5b506102016004803603810190808035906020019092919050505061066a565b6040518080602001838152602001828103825284818151815260200191508051906020019080838360005b8381101561024757808201518184015260208101905061022c565b50505050905090810190601f1680156102745780820380516001836020036101000a031916815260200191505b50935050505060405180910390f35b34801561028f57600080fd5b5061029861073b565b005b3480156102a657600080fd5b506102af61083b565b6040518080602001848152602001838152602001828103825285818151815260200191508051906020019080838360005b838110156102fb5780820151818401526020810190506102e0565b50505050905090810190601f1680156103285780820380516001836020036101000a031916815260200191505b5094505050505060405180910390f35b34801561034457600080fd5b5061034d61091a565b6040518082815260200191505060405180910390f35b6000600260009054906101000a900473ffffffffffffffffffffffffffffffffffffffff16905090565b600260009054906101000a900473ffffffffffffffffffffffffffffffffffffffff1673ffffffffffffffffffffffffffffffffffffffff163373ffffffffffffffffffffffffffffffffffffffff16141515610452576040517f08c379a000000000000000000000000000000000000000000000000000000000815260040180806020018281038252600c8152602001807fe99d9ee6b395e6938de4bd9c000000000000000000000000000000000000000081525060200191505060405180910390fd5b8073ffffffffffffffffffffffffffffffffffffffff166108fc3073ffffffffffffffffffffffffffffffffffffffff16319081150290604051600060405180830381858888f1935050505015156104a657fe5b50565b600260009054906101000a900473ffffffffffffffffffffffffffffffffffffffff1673ffffffffffffffffffffffffffffffffffffffff163373ffffffffffffffffffffffffffffffffffffffff1614151561056e576040517f08c379a000000000000000000000000000000000000000000000000000000000815260040180806020018281038252600c8152602001807fe99d9ee6b395e6938de4bd9c000000000000000000000000000000000000000081525060200191505060405180910390fd5b60c8815110151561060d576040517f08c379a00000000000000000000000000000000000000000000000000000000081526004018080602001828103825260248152602001807fe5beaee58d9ae58685e5aeb9e4b88de883bde8b685e8bf87323030e4b8aae69681526020017f87e5ad970000000000000000000000000000000000000000000000000000000081525060400191505060405180910390fd5b426000806001548152602001908152602001600020600001819055508060008060015481526020019081526020016000206001019080519060200190610654929190610924565b5060016000815480929190600101919050555050565b606060008060008481526020019081526020016000206001018054600181600116156101000203166002900480601f0160208091040260200160405190810160405280929190818152602001828054600181600116156101000203166002900480156107175780601f106106ec57610100808354040283529160200191610717565b820191906000526020600020905b8154815290600101906020018083116106fa57829003601f168201915b50505050509150600080848152602001908152602001600020600001549050915091565b600260009054906101000a900473ffffffffffffffffffffffffffffffffffffffff1673ffffffffffffffffffffffffffffffffffffffff163373ffffffffffffffffffffffffffffffffffffffff16141515610800576040517f08c379a000000000000000000000000000000000000000000000000000000000815260040180806020018281038252600c8152602001807fe99d9ee6b395e6938de4bd9c000000000000000000000000000000000000000081525060200191505060405180910390fd5b600260009054906101000a900473ffffffffffffffffffffffffffffffffffffffff1673ffffffffffffffffffffffffffffffffffffffff16ff5b6060600080600080600180540381526020019081526020016000206001018054600181600116156101000203166002900480601f0160208091040260200160405190810160405280929190818152602001828054600181600116156101000203166002900480156108ed5780601f106108c2576101008083540402835291602001916108ed565b820191906000526020600020905b8154815290600101906020018083116108d057829003601f168201915b50505050509250600080600180540381526020019081526020016000206000015491506001549050909192565b6000600154905090565b828054600181600116156101000203166002900490600052602060002090601f016020900481019282601f1061096557805160ff1916838001178555610993565b82800160010185558215610993579182015b82811115610992578251825591602001919060010190610977565b5b5090506109a091906109a4565b5090565b6109c691905b808211156109c25760008160009055506001016109aa565b5090565b905600a165627a7a7230582088ee950e71ed9083757e23b597a823fbaa389a02bcda28c572a6aed5264aedf60029",
  "source": "pragma solidity ^0.4.24;\n/*\n合约功能\n1. 发送微博\n2. 查找微博\n3. 打赏\n*/\ncontract Account{\n    //定义结构体\n    struct Weibo{\n        uint timeStamp;\n        string weiboString;\n    }\n    //定义一个Mapping，用于保存微博内容，Key为ID，Value为微博结构体对象\n    mapping (uint => Weibo) _weibos;\n    // 定义微博账户发送的微博数量\n    uint _numberOfWeibos;\n    //定义微博账户的所有者\n    address _adminAddress;\n\n    //定义权限控制，被这个修饰符修饰的方法，表示该方法只能被微博所有者操作\n    modifier onlyAdmin {\n        require(msg.sender == _adminAddress, \"非法操作\");\n        _;\n    }\n    //微博合约的构造方法\n    constructor () public{\n        _numberOfWeibos = 0;\n        _adminAddress = msg.sender;\n    }\n\n    //发微博\n    function sendWeibo(string weiboString) public onlyAdmin {\n        //微博内容的长度不能超过200\n        require(bytes(weiboString).length < 200,\"微博内容不能超过200个文字\");\n        _weibos[_numberOfWeibos].timeStamp = now;\n        _weibos[_numberOfWeibos].weiboString = weiboString;\n        _numberOfWeibos++;\n    }\n\n    //根据ID查找微博\n    function getWeibo(uint weiboId) public view returns (string weiboString,uint timeStamp){\n        weiboString = _weibos[weiboId].weiboString;\n        timeStamp = _weibos[weiboId].timeStamp;\n\n    }\n    //返回最新的一条微博\n    function getLastestWeibo() public view returns (string weiboString, uint timeStamp, uint numberOfWeibos){\n        weiboString = _weibos[_numberOfWeibos - 1].weiboString;\n        timeStamp = _weibos[_numberOfWeibos - 1].timeStamp;\n        numberOfWeibos = _numberOfWeibos;\n    }\n    \n    //返回微博账户所有者\n    function getOwnerAddress() public view returns (address adminAddress) {\n        return _adminAddress;\n    }\n    //返回微博总数\n    function getNumberOfWeibos() public view returns (uint numberOfWeibos) {\n        return _numberOfWeibos;\n    }\n    //取回打赏\n    function adminRetrieveDonation(address receiver) public onlyAdmin{\n        assert(receiver.send(this.balance));\n\n    }\n    //记录每条打赏记录\n    event LogDonate(address indexed from, uint256 _aomunt);\n\n    //接受别人的打赏\n    function()public payable {\n        emit LogDonate(msg.sender,msg.value);\n    }\n    \n    //摧毁合约\n    function adminDeleteAccount() public onlyAdmin{\n        selfdestruct(_adminAddress);\n    }\n\n}",
  "sourcePath": "/Users/brucefeng/Coding/Solidity/constractDemos/WeiboDapp/contracts/Account.sol",
  "compiler": {
    "name": "solc",
    "version": "0.4.24+commit.e67f0147.Emscripten.clang"
  },
  "schemaVersion": "2.0.1",
  "updatedAt": "2018-10-09T11:24:36.649Z"
}