{
  "contractName": "Register",
  "abi": [
    {
      "inputs": [],
      "payable": false,
      "stateMutability": "nonpayable",
      "type": "constructor"
    },
    {
      "payable": true,
      "stateMutability": "payable",
      "type": "fallback"
    },
    {
      "anonymous": false,
      "inputs": [
        {
          "indexed": true,
          "name": "from",
          "type": "address"
        },
        {
          "indexed": false,
          "name": "_aomunt",
          "type": "uint256"
        }
      ],
      "name": "LogDonate",
      "type": "event"
    },
    {
      "constant": false,
      "inputs": [
        {
          "name": "name",
          "type": "string"
        },
        {
          "name": "accountAddress",
          "type": "address"
        }
      ],
      "name": "register",
      "outputs": [],
      "payable": false,
      "stateMutability": "nonpayable",
      "type": "function"
    },
    {
      "constant": true,
      "inputs": [],
      "name": "getNumberOfAccounts",
      "outputs": [
        {
          "name": "numberOfAccounts",
          "type": "uint256"
        }
      ],
      "payable": false,
      "stateMutability": "view",
      "type": "function"
    },
    {
      "constant": true,
      "inputs": [
        {
          "name": "name",
          "type": "string"
        }
      ],
      "name": "getAddressOfName",
      "outputs": [
        {
          "name": "addr",
          "type": "address"
        }
      ],
      "payable": false,
      "stateMutability": "view",
      "type": "function"
    },
    {
      "constant": true,
      "inputs": [
        {
          "name": "addr",
          "type": "address"
        }
      ],
      "name": "getNameOfAddress",
      "outputs": [
        {
          "name": "name",
          "type": "string"
        }
      ],
      "payable": false,
      "stateMutability": "view",
      "type": "function"
    },
    {
      "constant": true,
      "inputs": [
        {
          "name": "id",
          "type": "uint256"
        }
      ],
      "name": "getAddressOfId",
      "outputs": [
        {
          "name": "addr",
          "type": "address"
        }
      ],
      "payable": false,
      "stateMutability": "view",
      "type": "function"
    },
    {
      "constant": false,
      "inputs": [],
      "name": "adminRetrieveDonations",
      "outputs": [],
      "payable": false,
      "stateMutability": "nonpayable",
      "type": "function"
    },
    {
      "constant": false,
      "inputs": [],
      "name": "adminDeleteRegistry",
      "outputs": [],
      "payable": false,
      "stateMutability": "nonpayable",
      "type": "function"
    }
  ],
  "bytecode": "0x608060405234801561001057600080fd5b50600060038190555033600460006101000a81548173ffffffffffffffffffffffffffffffffffffffff021916908373ffffffffffffffffffffffffffffffffffffffff1602179055506109a9806100696000396000f300608060405260043610610083576000357c0100000000000000000000000000000000000000000000000000000000900463ffffffff1680631e59c529146100d3578063309e36ef1461015c578063345e34161461018757806338ec6ba81461019e5780633af41dc214610247578063b2dad25d1461025e578063ec43eeb61461031a575b3373ffffffffffffffffffffffffffffffffffffffff167fc651c526da5277c9cbde59963e1c4e6324da2fae97ff1e31a326a0475664a383346040518082815260200191505060405180910390a2005b3480156100df57600080fd5b5061015a600480360381019080803590602001908201803590602001908080601f0160208091040260200160405190810160405280939291908181526020018383808284378201915050505050509192919290803573ffffffffffffffffffffffffffffffffffffffff169060200190929190505050610387565b005b34801561016857600080fd5b50610171610584565b6040518082815260200191505060405180910390f35b34801561019357600080fd5b5061019c61058e565b005b3480156101aa57600080fd5b50610205600480360381019080803590602001908201803590602001908080601f01602080910402602001604051908101604052809392919081815260200183838082843782019150505050505091929192905050506106cb565b604051808273ffffffffffffffffffffffffffffffffffffffff1673ffffffffffffffffffffffffffffffffffffffff16815260200191505060405180910390f35b34801561025357600080fd5b5061025c610760565b005b34801561026a57600080fd5b5061029f600480360381019080803573ffffffffffffffffffffffffffffffffffffffff169060200190929190505050610860565b6040518080602001828103825283818151815260200191508051906020019080838360005b838110156102df5780820151818401526020810190506102c4565b50505050905090810190601f16801561030c5780820380516001836020036101000a031916815260200191505b509250505060405180910390f35b34801561032657600080fd5b5061034560048036038101908080359060200190929190505050610940565b604051808273ffffffffffffffffffffffffffffffffffffffff1673ffffffffffffffffffffffffffffffffffffffff16815260200191505060405180910390f35b600073ffffffffffffffffffffffffffffffffffffffff166002836040518082805190602001908083835b6020831015156103d757805182526020820191506020810190506020830392506103b2565b6001836020036101000a038019825116818451168082178552505050505050905001915050908152602001604051809103902060009054906101000a900473ffffffffffffffffffffffffffffffffffffffff1673ffffffffffffffffffffffffffffffffffffffff161415156104b6576040517f08c379a000000000000000000000000000000000000000000000000000000000815260040180806020018281038252600f8152602001807fe8b4a6e58fb7e5b7b2e5ad98e59ca8000000000000000000000000000000000081525060200191505060405180910390fd5b60008060008373ffffffffffffffffffffffffffffffffffffffff1673ffffffffffffffffffffffffffffffffffffffff168152602001908152602001600020805460018160011615610100020316600290049050141515610580576040517f08c379a000000000000000000000000000000000000000000000000000000000815260040180806020018281038252600f8152602001807fe698b5e7a7b0e5b7b2e5ad98e59ca8000000000000000000000000000000000081525060200191505060405180910390fd5b5050565b6000600354905090565b600460009054906101000a900473ffffffffffffffffffffffffffffffffffffffff1673ffffffffffffffffffffffffffffffffffffffff163373ffffffffffffffffffffffffffffffffffffffff16141515610653576040517f08c379a000000000000000000000000000000000000000000000000000000000815260040180806020018281038252600c8152602001807fe99d9ee6b395e6938de4bd9c000000000000000000000000000000000000000081525060200191505060405180910390fd5b600460009054906101000a900473ffffffffffffffffffffffffffffffffffffffff1673ffffffffffffffffffffffffffffffffffffffff166108fc3073ffffffffffffffffffffffffffffffffffffffff16319081150290604051600060405180830381858888f1935050505015156106c957fe5b565b60006002826040518082805190602001908083835b60208310151561070557805182526020820191506020810190506020830392506106e0565b6001836020036101000a038019825116818451168082178552505050505050905001915050908152602001604051809103902060009054906101000a900473ffffffffffffffffffffffffffffffffffffffff169050919050565b600460009054906101000a900473ffffffffffffffffffffffffffffffffffffffff1673ffffffffffffffffffffffffffffffffffffffff163373ffffffffffffffffffffffffffffffffffffffff16141515610825576040517f08c379a000000000000000000000000000000000000000000000000000000000815260040180806020018281038252600c8152602001807fe99d9ee6b395e6938de4bd9c000000000000000000000000000000000000000081525060200191505060405180910390fd5b600460009054906101000a900473ffffffffffffffffffffffffffffffffffffffff1673ffffffffffffffffffffffffffffffffffffffff16ff5b60606000808373ffffffffffffffffffffffffffffffffffffffff1673ffffffffffffffffffffffffffffffffffffffff1681526020019081526020016000208054600181600116156101000203166002900480601f0160208091040260200160405190810160405280929190818152602001828054600181600116156101000203166002900480156109345780601f1061090957610100808354040283529160200191610934565b820191906000526020600020905b81548152906001019060200180831161091757829003601f168201915b50505050509050919050565b60006001600083815260200190815260200160002060009054906101000a900473ffffffffffffffffffffffffffffffffffffffff1690509190505600a165627a7a7230582016b515cf4e2fe95710b3e6e6e035eea5d0bd3f6b457a7c13b6a8644b6c6b8c690029",
  "source": "pragma solidity ^0.4.24;\n/*\n\n维护账户昵称，账户ID到WeiboAccount合约之间的映射关系，别人可以平台找到对方并与之互动，及时平台被屏蔽或者删除，我们的微博合约仍旧存在\n本合约(微博管理平台)功能\n1.注册微博\n2.返回已经注册的账户数量\n3.查找微博账户\n4.打赏\n*/\ncontract Register{\n    //根据账户昵称，ID，地址查找微博账户\n    mapping(address => string) _addressToAccountName;\n    mapping(uint => address) _accountIdToAccountAddress;\n    mapping(string => address) _accountNameToAddress;\n\n    //平台上的注册账户数量\n    uint _numberOfAccounts;\n\n    //定义微博平台管理员\n    address _registerAdmin;\n\n    //定义权限控制\n    modifier onlyRegistryAdmin {\n        require(msg.sender == _registerAdmin,\"非法操作\");\n        _;\n    }\n    //微博管理平台构造函数\n    constructor () public {\n        _numberOfAccounts = 0;\n        _registerAdmin = msg.sender;\n    }\n\n    //在平台上注册微博：用户名/微博账号\n    function register(string name, address accountAddress) public {\n        //需要满足账号未曾注册\n        require(_accountNameToAddress[name] == address(0),\"账号已存在\");\n        //需要满足昵称未曾注册\n        require(bytes(_addressToAccountName[accountAddress]).length == 0,\"昵称已存在\");\n    }\n    //返回已注册的账户数量\n    function getNumberOfAccounts() public view returns (uint numberOfAccounts) {\n        numberOfAccounts = _numberOfAccounts;\n    }\n\n    //根据昵称对应的微博账户地址\n    function getAddressOfName(string name)public  view returns (address addr){\n        addr = _accountNameToAddress[name];\n    }\n    //根据微博账户地址返回昵称\n    function getNameOfAddress(address addr) public view returns (string name){\n        name = _addressToAccountName[addr];\n    }\n    //根据ID返回账户地址\n    function getAddressOfId(uint id)public  view returns (address addr){\n        addr = _accountIdToAccountAddress[id];\n    }\n    //取回打赏\n    function adminRetrieveDonations()public onlyRegistryAdmin{\n        assert(_registerAdmin.send(this.balance));\n    }\n     //记录每条打赏记录\n    event LogDonate(address indexed from, uint256 _aomunt);\n\n    //接受别人的打赏\n    function()public payable {\n        emit LogDonate(msg.sender,msg.value);\n    }\n    \n    //摧毁合约\n    function adminDeleteRegistry() public onlyRegistryAdmin{\n        selfdestruct(_registerAdmin);\n    }\n\n\n}\n",
  "sourcePath": "/Users/brucefeng/Coding/Solidity/constractDemos/WeiboDapp/contracts/Register.sol",
  "compiler": {
    "name": "solc",
    "version": "0.4.24+commit.e67f0147.Emscripten.clang"
  },
  "schemaVersion": "2.0.1",
  "updatedAt": "2018-10-09T12:23:19.015Z"
}